:100000000C942A000C9447000C9447000C94470071
:100010000C9447000C9447000C9447000C94470044
:100020000C9447000C9447000C9447000C94470034
:100030000C9447000C9447000C9447000C94470024
:100040000C9447000C9447000C9447000C94470014
:100050000C94470011241FBECFE5D8E0DEBFCDBF12
:1000600010E0A0E6B0E0E8E4F7E002C005900D92F1
:10007000AC37B107D9F720E0ACE7B0E001C01D9282
:10008000A338B207E1F70E9412030C94A2030C9468
:100090000000CF92DF92EF92FF92CF93FC0121817B
:1000A000328143815481C081C12CD12C7601C21A86
:1000B000D30AE40AF50ACC0CDD1CEE1CFF1CCC0CA8
:1000C000DD1CEE1CFF1CCC0CDD1CEE1CFF1CCC0C44
:1000D000DD1CEE1CFF1CF4E2DF0EF4EFEF1EF11C42
:1000E000AC2FB0E0AA0FBB1F0E946F039B01AC01B5
:1000F000C701B6010E944D03C90101978F3F9105C9
:1001000008F0FFCFC43059F018F4C13081F405C0B5
:10011000C03141F0C03459F408C011B808C081E0C2
:1001200081B905C082E081B902C083E081B920B9FC
:1001300084E086BF81E080937C00CF91FF90EF90B8
:10014000DF90CF90089584EA86BF06B607FEFDCF04
:10015000089584E986BF089584EC86BF06B607FE3D
:10016000FDCF83B1089584E886BF06B607FEFDCFB4
:1001700083B1089581B1887F089583B984E886BFEB
:1001800006B607FEFDCF0895CF93C82F0E94A300A7
:100190000E94BA00883059F48C2F880F0E94BD004D
:1001A0000E94BA0091E0883119F090E001C090E01F
:1001B000892FCF9108950E94A90008950E94BD0043
:1001C0000E94BA0091E0883209F090E0892F0895EA
:1001D000CF92DF92EF92FF920F931F93CF93DF9313
:1001E000182FEB01D42E0E94A3000E94BA00883081
:1001F00059F5812F880F81600E94BD000E94BA00CE
:10020000803421F5ED2CF12C81E0E81AF1081E1460
:100210001F0474F4C12C8E010C0D111D0E94AC0042
:10022000F8018083C3948C2D90E08E159F059CF37C
:100230008D2D90E00197C80FD91F0E94B3008883CD
:100240000E94A90081E003C08AE001C084E1DF913F
:10025000CF911F910F91FF90EF90DF90CF90089575
:1002600080917C000895CF93DF9300D000D000D020
:10027000CDB7DEB70E94300181110FC080E89AE14E
:10028000A6E0B0E08A839B83AC83BD831E8281E0BD
:100290008983CE0101960E94490026960FB6F894F4
:1002A000DEBF0FBECDBFDF91CF9108959BB3282F46
:1002B000207F9F70922B9BBBDA98DB9AE7ECF0E0F3
:1002C0003197F1F700C00000DB98EFE1F3E03197E0
:1002D000F1F700C000002BB3F0E18F9FC0011124A3
:1002E000922F9F70892B8BBBDB9A87EC90E0019754
:1002F000F1F700C00000DB9808959BB3282F207F02
:100300009F70922B9BBBDA9ADB9AE7ECF0E0319777
:10031000F1F700C00000DB98EFE3FFE13197F1F760
:1003200000C000002BB3F0E18F9FC0011124922F79
:100330009F70892B8BBBDB9A8FE39FE10197F1F7CD
:1003400000C00000DB9808958CEF8ABBDB982FEF8C
:1003500083EC99E0215080409040E1F700C000001C
:1003600083E30E9456012FEF89EF90E021508040F7
:100370009040E1F700C0000082E30E9456012FEF99
:1003800089EF90E0215080409040E1F700C00000EC
:1003900088E20E9456012FEF89EF90E021508040C3
:1003A0009040E1F700C000008EE00E9456012FEF60
:1003B00089EF90E0215080409040E1F700C00000BC
:1003C00081E00E9456012FEF89EF90E0215080409C
:1003D0009040E1F700C00000089581E00E945601BE
:1003E0008FE39FE10197F1F700C0000008951F938C
:1003F000CF93DF93EC018881882381F010E00E9485
:100400007D011F5F8FE19EE40197F1F700C00000BE
:10041000FE01E10FF11D80818111F1CFDF91CF91BC
:100420001F910895813029F4862F81580E9456012A
:100430000895823021F4862F81540E945601089538
:10044000CF93DF9364E670E00E943903EC01862FBE
:10045000805D0E947D01CE016AE070E00E94390358
:10046000C82F862F805D0E947D018C2F805D0E94A9
:100470007D01DF91CF9108950E94330183E50E94B1
:10048000C40080E00E94DE000E94DB0083E50E9441
:10049000C4008DE20E94DE0080E00E94DE000E9427
:1004A000DB0083E50E94C4008DE20E94DE0080E153
:1004B0000E94DE000E94DB0083E50E94C4008DE202
:1004C0000E94DE0088E00E94DE000E94DB0081E0E6
:1004D0000895CF93DF9300D000D000D0CDB7DEB722
:1004E00083E50E94C40082E30E94DE000E94DB00DC
:1004F00046E0BE016F5F7F4F83E50E94E8000E94E7
:10050000DB009A8180E02981820F911D9093800009
:1005100080937F009C8180E02B81820F911D9093BE
:100520008200809381009E8180E02D81820F911D49
:1005300090937E0080937D0026960FB6F894DEBFE0
:100540000FBECDBFDF91CF91089580E690E00E946D
:10055000F70161E082E00E94120280917F00909199
:100560008000992374F48DE20E947D0180917F00C8
:10057000909180009195819591099093800080934E
:100580007F0062E082E00E94120280917F009091E1
:1005900080000E94200280E20E947D018091810003
:1005A00090918200992374F48DE20E947D018091E4
:1005B000810090918200919581959109909382009C
:1005C0008093810067E082E00E94120280918100A6
:1005D000909182000E94200280E20E947D01809121
:1005E0007D0090917E00992394F46BE082E00E945C
:1005F00012028DE20E947D0180917D0090917E002B
:1006000091958195910990937E0080937D006CE097
:1006100082E00E94120280917D0090917E000E94F3
:10062000200208950E94A4018CE00E9456018EE6EB
:1006300090E00E94F7012FEF87EA91E62150804079
:100640009040E1F700C000000E94ED0182E50E94A9
:100650003C020E9469020E94A5022FEF83ED90E305
:10066000215080409040E1F700C000000E94ED0161
:10067000F0CF97FB072E16F4009407D077FD09D032
:100680000E94770307FC05D03EF4909581959F4F1B
:100690000895709561957F4F0895A1E21A2EAA1BC7
:1006A000BB1BFD010DC0AA1FBB1FEE1FFF1FA21722
:1006B000B307E407F50720F0A21BB30BE40BF50B1F
:1006C000661F771F881F991F1A9469F760957095A8
:1006D000809590959B01AC01BD01CF010895B7FFB6
:1006E0000C948B030E948B03821B930B0895AA1B0F
:1006F000BB1B51E107C0AA1FBB1FA617B70710F00D
:10070000A61BB70B881F991F5A95A9F7809590953E
:10071000BC01CD0108950E949603A59F900DB49F42
:10072000900DA49F800D911D11240895A29FB001EA
:10073000B39FC001A39F01D0B29F700D811D1124F2
:08074000911D0895F894FFCF0C
:100748002020782020202079202020207A00414471
:0C075800584C3334352054657374000095
:00000001FF
