S01700004144583334355F41746D65676133322E7372656381
S11300000C942A000C9447000C9447000C9447006D
S11300100C9447000C9447000C9447000C94470040
S11300200C9447000C9447000C9447000C94470030
S11300300C9447000C9447000C9447000C94470020
S11300400C9447000C9447000C9447000C94470010
S11300500C94470011241FBECFE5D8E0DEBFCDBF0E
S113006010E0A0E6B0E0E4E6F3E002C005900D92F3
S1130070A437B107D9F720E0A4E7B0E001C01D928E
S1130080AA37B207E1F70E9442010C94B0010C9424
S113009000009BB3282F207F9F70922B9BBBDA9884
S11300A0DB9AE7ECF0E03197F1F700C00000DB9851
S11300B0EFE1F3E03197F1F700C000002BB3F0E17A
S11300C08F9FC0011124922F9F70892B8BBBDB9AC9
S11300D087EC90E00197F1F700C00000DB980895E9
S11300E09BB3282F207F9F70922B9BBBDA9ADB9ABD
S11300F0E7ECF0E03197F1F700C00000DB98EFE3A4
S1130100FFE13197F1F700C000002BB3F0E18F9FBE
S1130110C0011124922F9F70892B8BBBDB9A8FE334
S11301209FE10197F1F700C00000DB9808958CEF80
S11301308ABBDB982FEF83EC99E0215080409040FC
S1130140E1F700C0000083E30E9449002FEF89EF2C
S113015090E0215080409040E1F700C0000082E32D
S11301600E9449002FEF89EF90E021508040904099
S1130170E1F700C0000088E20E9449002FEF89EFF8
S113018090E0215080409040E1F700C000008EE0F4
S11301900E9449002FEF89EF90E021508040904069
S11301A0E1F700C0000081E00E9449002FEF89EFD1
S11301B090E0215080409040E1F700C00000089595
S11301C081E00E9449008FE39FE10197F1F700C0AD
S11301D0000008951F93CF93DF93EC018881882357
S11301E081F010E00E9470001F5F8FE19EE4019790
S11301F0F1F700C00000FE01E10FF11D80818111C3
S1130200F1CFDF91CF911F910895CF93DF93C82F42
S1130210DDEC8D9FD12D1124D695D695D6958D2FB5
S1130220805D0E947000DD0F8D2F880F880FD80F1E
S11302308C2F8D1B805D0E947000DF91CF910895FB
S113024011B887E480B984E086BF089584EA86BF44
S113025006B607FEFDCF089584E986BF089583B9E5
S113026084E886BF06B607FEFDCF0895811103C05A
S113027086E886BF02C084E886BF06B607FEFDCFC7
S113028083B108950E94970080E690E00E94EA00FE
S11302902FEF87EA91E6215080409040E1F700C0BB
S11302A000000E94E0000E9420010E94260183E5D4
S11302B00E942F010E942C010E9426018DE20E94BF
S11302C02F018DE690E00E94EA0080E00E942F0159
S11302D00E942C010E94260183E50E942F018DE2D9
S11302E00E942F0180E10E942F010E942C010E9494
S11302F0260183E50E942F018DE20E942F0188E0F0
S11303000E942F010E942C018FE690E00E94EA00D7
S1130310C4E7D0E00E94260183E50E942F0182E316
S11303200E942F010E942C010E94260183E50E9455
S11303302F0181E00E94360188830E942C0188816C
S11303400E9405018FE690E00E94EA002FEF87EA01
S113035091E6215080409040E1F700C00000DACFE0
S1070360F894FFCF3B
S11303644144584C33343520546573740032006866
S10703746572650045
S9030000FC
